{
  "contractName": "Wallet",
  "abi": [
    {
      "inputs": [],
      "stateMutability": "nonpayable",
      "type": "constructor"
    },
    {
      "anonymous": false,
      "inputs": [
        {
          "indexed": false,
          "internalType": "address",
          "name": "propietario",
          "type": "address"
        },
        {
          "indexed": false,
          "internalType": "uint256",
          "name": "balance",
          "type": "uint256"
        }
      ],
      "name": "LogRetirarSaldo",
      "type": "event"
    },
    {
      "anonymous": false,
      "inputs": [
        {
          "indexed": false,
          "internalType": "address",
          "name": "propietario",
          "type": "address"
        },
        {
          "indexed": false,
          "internalType": "uint256",
          "name": "balance",
          "type": "uint256"
        }
      ],
      "name": "LogRetirarTodo",
      "type": "event"
    },
    {
      "anonymous": false,
      "inputs": [
        {
          "indexed": false,
          "internalType": "address",
          "name": "wallet",
          "type": "address"
        },
        {
          "indexed": false,
          "internalType": "uint256",
          "name": "cantidad",
          "type": "uint256"
        }
      ],
      "name": "LogTransferirA",
      "type": "event"
    },
    {
      "anonymous": false,
      "inputs": [
        {
          "indexed": true,
          "internalType": "address",
          "name": "previousOwner",
          "type": "address"
        },
        {
          "indexed": true,
          "internalType": "address",
          "name": "newOwner",
          "type": "address"
        }
      ],
      "name": "OwnershipTransferred",
      "type": "event"
    },
    {
      "inputs": [],
      "name": "owner",
      "outputs": [
        {
          "internalType": "address",
          "name": "",
          "type": "address"
        }
      ],
      "stateMutability": "view",
      "type": "function"
    },
    {
      "inputs": [],
      "name": "renounceOwnership",
      "outputs": [],
      "stateMutability": "nonpayable",
      "type": "function"
    },
    {
      "inputs": [
        {
          "internalType": "address",
          "name": "newOwner",
          "type": "address"
        }
      ],
      "name": "transferOwnership",
      "outputs": [],
      "stateMutability": "nonpayable",
      "type": "function"
    },
    {
      "stateMutability": "payable",
      "type": "receive"
    },
    {
      "inputs": [],
      "name": "obtenerSaldoActual",
      "outputs": [
        {
          "internalType": "uint256",
          "name": "",
          "type": "uint256"
        }
      ],
      "stateMutability": "view",
      "type": "function"
    },
    {
      "inputs": [],
      "name": "obtenerPropietario",
      "outputs": [
        {
          "internalType": "address",
          "name": "",
          "type": "address"
        }
      ],
      "stateMutability": "view",
      "type": "function"
    },
    {
      "inputs": [],
      "name": "retirarTodo",
      "outputs": [],
      "stateMutability": "nonpayable",
      "type": "function"
    },
    {
      "inputs": [
        {
          "internalType": "uint256",
          "name": "cantidad",
          "type": "uint256"
        }
      ],
      "name": "retirarSaldo",
      "outputs": [],
      "stateMutability": "nonpayable",
      "type": "function"
    },
    {
      "inputs": [
        {
          "internalType": "address",
          "name": "walletExterna",
          "type": "address"
        },
        {
          "internalType": "uint256",
          "name": "cantidad",
          "type": "uint256"
        }
      ],
      "name": "transferirA",
      "outputs": [],
      "stateMutability": "nonpayable",
      "type": "function"
    }
  ],
  "bytecode": "0x60806040523480156200001157600080fd5b5062000032620000266200004960201b60201c565b6200005160201b60201c565b62000043336200011560201b60201c565b62000380565b600033905090565b60008060009054906101000a900473ffffffffffffffffffffffffffffffffffffffff169050816000806101000a81548173ffffffffffffffffffffffffffffffffffffffff021916908373ffffffffffffffffffffffffffffffffffffffff1602179055508173ffffffffffffffffffffffffffffffffffffffff168173ffffffffffffffffffffffffffffffffffffffff167f8be0079c531659141344cd1fd0a4f28419497f9722a3daafe3b4186f6b6457e060405160405180910390a35050565b62000125620001ab60201b60201c565b600073ffffffffffffffffffffffffffffffffffffffff168173ffffffffffffffffffffffffffffffffffffffff160362000197576040517f08c379a00000000000000000000000000000000000000000000000000000000081526004016200018e90620002ec565b60405180910390fd5b620001a8816200005160201b60201c565b50565b620001bb6200004960201b60201c565b73ffffffffffffffffffffffffffffffffffffffff16620001e16200023c60201b60201c565b73ffffffffffffffffffffffffffffffffffffffff16146200023a576040517f08c379a000000000000000000000000000000000000000000000000000000000815260040162000231906200035e565b60405180910390fd5b565b60008060009054906101000a900473ffffffffffffffffffffffffffffffffffffffff16905090565b600082825260208201905092915050565b7f4f776e61626c653a206e6577206f776e657220697320746865207a65726f206160008201527f6464726573730000000000000000000000000000000000000000000000000000602082015250565b6000620002d460268362000265565b9150620002e18262000276565b604082019050919050565b600060208201905081810360008301526200030781620002c5565b9050919050565b7f4f776e61626c653a2063616c6c6572206973206e6f7420746865206f776e6572600082015250565b60006200034660208362000265565b915062000353826200030e565b602082019050919050565b60006020820190508181036000830152620003798162000337565b9050919050565b610a2f80620003906000396000f3fe60806040526004361061007f5760003560e01c8063819c6f871161004e578063819c6f871461010b5780638da5cb5b14610136578063b1cf8dbd14610161578063f2fde38b1461018c57610086565b8063065548c41461008b578063715018a6146100b457806371ef7cdd146100cb578063760e3a71146100e257610086565b3661008657005b600080fd5b34801561009757600080fd5b506100b260048036038101906100ad91906106fb565b6101b5565b005b3480156100c057600080fd5b506100c9610284565b005b3480156100d757600080fd5b506100e0610298565b005b3480156100ee57600080fd5b506101096004803603810190610104919061073b565b610379565b005b34801561011757600080fd5b50610120610455565b60405161012d9190610777565b60405180910390f35b34801561014257600080fd5b5061014b610464565b6040516101589190610777565b60405180910390f35b34801561016d57600080fd5b5061017661048d565b60405161018391906107a1565b60405180910390f35b34801561019857600080fd5b506101b360048036038101906101ae91906107bc565b610495565b005b6101bd610518565b80471015610200576040517f08c379a00000000000000000000000000000000000000000000000000000000081526004016101f790610846565b60405180910390fd5b8173ffffffffffffffffffffffffffffffffffffffff166108fc829081150290604051600060405180830381858888f19350505050158015610246573d6000803e3d6000fd5b507ff100cfdd839aa289de991fd7d80704a17f659d27c7760d203288599a9d91c4568282604051610278929190610866565b60405180910390a15050565b61028c610518565b6102966000610596565b565b6102a0610518565b600047116102e3576040517f08c379a00000000000000000000000000000000000000000000000000000000081526004016102da906108db565b60405180910390fd5b60004790506102f0610464565b73ffffffffffffffffffffffffffffffffffffffff166108fc829081150290604051600060405180830381858888f19350505050158015610335573d6000803e3d6000fd5b507f77d66d5008905a615d5bc7962c442c26668ff3e3617de34c6171066d9327ed1061035f610464565b8260405161036e929190610866565b60405180910390a150565b610381610518565b804710156103c4576040517f08c379a00000000000000000000000000000000000000000000000000000000081526004016103bb90610846565b60405180910390fd5b6103cc610464565b73ffffffffffffffffffffffffffffffffffffffff166108fc829081150290604051600060405180830381858888f19350505050158015610411573d6000803e3d6000fd5b507f4402538715dec63f9821c85bc3160ddf8ccc7aceee28714f88159565cc7b17ff61043b610464565b8260405161044a929190610866565b60405180910390a150565b600061045f610464565b905090565b60008060009054906101000a900473ffffffffffffffffffffffffffffffffffffffff16905090565b600047905090565b61049d610518565b600073ffffffffffffffffffffffffffffffffffffffff168173ffffffffffffffffffffffffffffffffffffffff160361050c576040517f08c379a00000000000000000000000000000000000000000000000000000000081526004016105039061096d565b60405180910390fd5b61051581610596565b50565b61052061065a565b73ffffffffffffffffffffffffffffffffffffffff1661053e610464565b73ffffffffffffffffffffffffffffffffffffffff1614610594576040517f08c379a000000000000000000000000000000000000000000000000000000000815260040161058b906109d9565b60405180910390fd5b565b60008060009054906101000a900473ffffffffffffffffffffffffffffffffffffffff169050816000806101000a81548173ffffffffffffffffffffffffffffffffffffffff021916908373ffffffffffffffffffffffffffffffffffffffff1602179055508173ffffffffffffffffffffffffffffffffffffffff168173ffffffffffffffffffffffffffffffffffffffff167f8be0079c531659141344cd1fd0a4f28419497f9722a3daafe3b4186f6b6457e060405160405180910390a35050565b600033905090565b600080fd5b600073ffffffffffffffffffffffffffffffffffffffff82169050919050565b600061069282610667565b9050919050565b6106a281610687565b81146106ad57600080fd5b50565b6000813590506106bf81610699565b92915050565b6000819050919050565b6106d8816106c5565b81146106e357600080fd5b50565b6000813590506106f5816106cf565b92915050565b6000806040838503121561071257610711610662565b5b6000610720858286016106b0565b9250506020610731858286016106e6565b9150509250929050565b60006020828403121561075157610750610662565b5b600061075f848285016106e6565b91505092915050565b61077181610687565b82525050565b600060208201905061078c6000830184610768565b92915050565b61079b816106c5565b82525050565b60006020820190506107b66000830184610792565b92915050565b6000602082840312156107d2576107d1610662565b5b60006107e0848285016106b0565b91505092915050565b600082825260208201905092915050565b7f4e6f2068617920666f6e646f7320737566696369656e74657300000000000000600082015250565b60006108306019836107e9565b915061083b826107fa565b602082019050919050565b6000602082019050818103600083015261085f81610823565b9050919050565b600060408201905061087b6000830185610768565b6108886020830184610792565b9392505050565b7f57616c6c65742076616369610000000000000000000000000000000000000000600082015250565b60006108c5600c836107e9565b91506108d08261088f565b602082019050919050565b600060208201905081810360008301526108f4816108b8565b9050919050565b7f4f776e61626c653a206e6577206f776e657220697320746865207a65726f206160008201527f6464726573730000000000000000000000000000000000000000000000000000602082015250565b60006109576026836107e9565b9150610962826108fb565b604082019050919050565b600060208201905081810360008301526109868161094a565b9050919050565b7f4f776e61626c653a2063616c6c6572206973206e6f7420746865206f776e6572600082015250565b60006109c36020836107e9565b91506109ce8261098d565b602082019050919050565b600060208201905081810360008301526109f2816109b6565b905091905056fea2646970667358221220b8575c29090822c03e39a1eb5a07c717cb4340c515a2333eca219d6cf3ffe0f564736f6c63430008110033",
  "immutableReferences": {},
  "source": "// SPDX-License-Identifier: GPL-3.0\npragma solidity >=0.7.0 <0.9.0;\n\nimport \"@openzeppelin/contracts/access/Ownable.sol\";\n\ncontract Wallet is Ownable {\n    constructor (){\n    transferOwnership(msg.sender);\n    }\n    event LogRetirarTodo(address propietario, uint256 balance);\n    event LogRetirarSaldo(address propietario, uint256 balance);\n    event LogTransferirA(address wallet, uint256 cantidad);\n    \n    function obtenerSaldoActual() external view returns(uint256){\n        return address(this).balance;\n    }\n\n    function obtenerPropietario() external view returns(address){\n        return owner();\n    }\n\n    function retirarTodo() external onlyOwner{\n        //Si no tiene balance, no podra realizar la transferencia\n        require(address(this).balance > 0, \"Wallet vacia\");\n        uint256 balance = address(this).balance;\n        payable(owner()).transfer(balance);\n        emit LogRetirarTodo(owner(),balance);\n    }\n\n    function retirarSaldo(uint256 cantidad) external onlyOwner{\n        //Si el saldo es menor a la cantidad, no puede retirar\n        require(address(this).balance >= cantidad, \"No hay fondos suficientes\");\n        payable(owner()).transfer(cantidad);\n        emit LogRetirarSaldo(owner(),cantidad);\n    }\n\n    function transferirA(address walletExterna,uint256 cantidad) external onlyOwner{\n        require(address(this).balance >= cantidad, \"No hay fondos suficientes\");\n        payable(walletExterna).transfer(cantidad);\n        emit LogTransferirA(walletExterna, cantidad);\n    }\n\n    receive() external payable {\n\n    }\n\n    \n}",
  "sourcePath": "/Users/fran/Desktop/Repositories/Blockchain2/contracts/Wallet.sol",
  "compiler": {
    "name": "solc",
    "version": "0.8.17+commit.8df45f5f.Emscripten.clang"
  },
  "schemaVersion": "3.4.11",
  "updatedAt": "2023-02-05T15:42:10.040Z",
  "devdoc": {
    "kind": "dev",
    "methods": {
      "owner()": {
        "details": "Returns the address of the current owner."
      },
      "renounceOwnership()": {
        "details": "Leaves the contract without owner. It will not be possible to call `onlyOwner` functions anymore. Can only be called by the current owner. NOTE: Renouncing ownership will leave the contract without an owner, thereby removing any functionality that is only available to the owner."
      },
      "transferOwnership(address)": {
        "details": "Transfers ownership of the contract to a new account (`newOwner`). Can only be called by the current owner."
      }
    },
    "version": 1
  },
  "userdoc": {
    "kind": "user",
    "methods": {},
    "version": 1
  }
}